:100000000C9434000C9451000C9451000C94510049
:100010000C9451000C9451000C9451000C9451001C
:100020000C9451000C9451000C9451000C9451000C
:100030000C9451000C9451000C9451000C945100FC
:100040000C9451000C9451000C9451000C945100EC
:100050000C9451000C9451000C9451000C945100DC
:100060000C9451000C94510011241FBECFEFD8E026
:10007000DEBFCDBF11E0A0E0B1E0E6E7F1E002C0F5
:1000800005900D92A831B107D9F721E0A8E1B1E0C0
:1000900001C01D92AD37B207E1F70E9499000C94A0
:1000A000B9000C9400009093C5008093C40088E1CF
:1000B0008093C10086E08093C20008959091C000B3
:1000C00095FFFCCF8093C60008958091C00087FF04
:1000D000FCCF8091C6000895CF93DF93EC01899106
:1000E000882319F00E945E00FACFDF91CF91089526
:1000F0000C946C00CF93C3E60E946500E091180158
:100100008A3011F08D3041F4F0E0E75EFE4F10824E
:1001100010921801CF91089591E09E0F90931801CD
:10012000F0E0E75EFE4F8083943630F3C093180111
:10013000E3CF87E690E00E94530078940E947A0013
:1001400060E071E089E191E00E94B000892B19F430
:1001500083E091E002C08EE091E00E946C00EECF5F
:10016000FB01DC018D91019080190110D9F3990BED
:060170000895F894FFCF92
:100176006C7300676C6F70676C6F700A0D0070614E
:0801860073676C6F700A0D0035
:00000001FF
