:100000000C943A000C9444000C9444000C9444006A
:100010000C9444000C9444000C9444000C94440050
:100020000C9444000C9444000C9444000C94440040
:100030000C9444000C9444000C9444000C94440030
:100040000C9444000C9444000C9444000C94440020
:100050000C9444000C9444000C9444000C94440010
:100060000C9444000C9444000C9444000C94440000
:100070000C94440011241FBECFEFD2E0DEBFCDBFF1
:100080000E9446000C945F000C9400008FEF8AB928
:1000900090E180E29BB92FEF39E648E121503040F2
:1000A0004040E1F700C000008BB92FEF39E648E18E
:1000B000215030404040E1F700C00000EBCFF89401
:0200C000FFCF70
:00000001FF
