:100000000C9434000C9451000C9451000C94510049
:100010000C9451000C9451000C9451000C9451001C
:100020000C9451000C9451000C9451000C9451000C
:100030000C9451000C9451000C9451000C945100FC
:100040000C9451000C9451000C9451000C945100EC
:100050000C9451000C9451000C9451000C945100DC
:100060000C9451000C94510011241FBECFEFD8E026
:10007000DEBFCDBF11E0A0E0B1E0E8EDF0E102C0ED
:1000800005900D92A435B107D9F721E0A4E5B1E0C0
:1000900001C01D92AA35B207E1F70E94C4040C9476
:1000A0006A080C9400000F931F93CF93DF93EC0129
:1000B0000EE211E08FEF0E94BE0489878F3F29F482
:1000C00001501109B9F78FE003C08E3F29F08DE090
:1000D0008C832A9A80E001C081E0DF91CF911F914B
:1000E0000F910895EF92FF920F931F93CF93DF9399
:1000F0008C01862F7A010E94BE04E7018EEFF81A68
:1001000089910E94BE04CE15DF05D1F78FEF0E94C2
:10011000BE048FEF0E94BE048FEF0E94BE04F80160
:1001200081878F71853029F081E184832A9A80E06C
:1001300001C081E0DF91CF911F910F91FF90EF906F
:1001400008950F931F93CF93DF938C01C0E0D0E00D
:10015000C017D10769F08FEF0E94BE048F3F51F0A6
:100160008FE99FE00197F1F700C000002196F0CFE2
:1001700080E001C081E0DF91CF911F910F91089540
:10018000CF93DF93EC018D81882381F08E819F8155
:100190009C012F5F3F4F3F832E838230924020F49B
:1001A0008FEF0E94BE04F2CF2A9A1D82DF91CF9179
:1001B00008958F929F92AF92BF92EF92FF921F93FA
:1001C000CF93DF937C01162F49015A010E94C00092
:1001D0002A988EE190E00E94A100812F80640E9405
:1001E000BE04C8E1D0E0D501C4010C2E04C0B69510
:1001F000A795979587950A94D2F70E94BE042897F1
:10020000C83F8FEFD80779F7112321F0183021F478
:1002100087E803C085E901C08FEF0E94BE04C0E0FB
:100220008FEF0E94BE04F701818787FF04C0CF3F94
:1002300011F0CF5FF5CFDF91CF911F91FF90EF903D
:10024000BF90AF909F908F9008950F931F93CF937F
:10025000DF93EC018B0120E030E0A90169E00E940E
:10026000D900882319F08EE08C8318C0CE010E943B
:100270005300882399F0E801005F1F4F8FEF0E9421
:10028000BE048993C017D107C9F78FEF0E94BE043F
:100290008FEF0E94BE042A9A81E002C02A9A80E071
:1002A000DF91CF911F910F910895CF92DF92EF923E
:1002B000FF920F931F93CF93DF93EC016901C80165
:1002C000820F931F8130924008F05EC08D81882399
:1002D00071F088819981AA81BB8184179507A6074F
:1002E000B70729F48E819F81C816D90610F5488377
:1002F00059836A837B838A85833039F089E0440F90
:10030000551F661F771F8A95D1F79A01AB0161E1EE
:10031000CE010E94D900882319F083E08C8334C079
:10032000CE010E945300882379F11F821E8281E052
:100330008D838E819F818C159D0548F48FEF0E94DF
:10034000BE048E819F8101969F838E83F2CF6701C9
:10035000E00EF11ECE14DF0439F08FEF0E94BE04D0
:10036000F60181936F01F6CF8E819F81080F191FCF
:100370001F830E838885882319F00115124038F0F9
:10038000CE010E94C00003C02A9A80E001C081E033
:10039000DF91CF911F910F91FF90EF90DF90CF9061
:1003A00008950F931F93CF93DF93CDB7DEB7609778
:1003B0000FB6F894DEBF0FBECDBF8C01BE016F5FDC
:1003C0007F4F0E942501882309F461C08981807CC8
:1003D00091F56F81637070E0762F6627770F770F46
:1003E000888524E0829FC0011124682B792B8985A0
:1003F0008295869586958370682B6F5F7F4FCB01C2
:10040000A0E0B0E04A854370440F2B8527FB2227EC
:1004100020F9422B2E812F7030E0240F311D275000
:100420003109BC01CD0104C0660F771F881F991FD9
:100430002A95D2F72FC0803439F568856695669580
:10044000862F90E0A0E0B0E0DC01992788272A857C
:10045000AC01BD01422B898590E0982F8827092E99
:10046000000CAA0BBB0B842B952BA62BB72B01964C
:10047000A11DB11DBC01CD014AE0660F771F881F89
:10048000991F4A95D1F706C089E0F801848360E09E
:1004900070E0CB0160960FB6F894DEBF0FBECDBF03
:1004A000DF91CF911F910F910895CF93DF93CDB737
:1004B000DEB760970FB6F894DEBF0FBECDBFBE01AA
:1004C0006F5F7F4F0E942501882321F08B8586FB7B
:1004D000882780F960960FB6F894DEBF0FBECDBFB7
:1004E000DF91CF9108958F929F92AF92BF92CF925A
:1004F000DF92EF92FF920F931F93CF93DF93EC0164
:100500004A015B01680179010E945502811102C014
:100510008BE033C08A85833071F089E0880C991CA8
:10052000AA1CBB1C8A95D1F799E0CC0CDD1CEE1CF3
:10053000FF1C9A95D1F7A501940160E2CE010E94BB
:10054000D900882311F08AE018C0A701960161E262
:10055000CE010E94D9008111F6CF20E030E0A90140
:1005600066E2CE010E94D9008111EDCF80E197E2D1
:100570000E94A100811105C08CE08C832A9A80E042
:1005800002C02A9A81E0DF91CF911F910F91FF90D5
:10059000EF90DF90CF90BF90AF909F908F90089595
:1005A0008F929F92AF92BF92EF92FF920F931F9301
:1005B000CF93DF93EC018BE0FE0111928A95E9F76E
:1005C000229A2A9A1AE08FEF0E94BE041150D9F79E
:1005D0002A9800E010E020E030E0A90160E0CE01C0
:1005E0000E94D900F82E898791E0891779F00D32A1
:1005F000F1E01F0711F481E05CC08FE99FE00197F3
:10060000F1F700C000000F5F1F4FE5CF2AEA31E08D
:1006100040E050E068E0CE010E94D90082FF02C0B5
:10062000FA860FC094E0E92E8FEF0E94BE048987FE
:10063000EA94E110F9CF8A3A11F082E03AC082E000
:100640008A878A85823021F0812C912C54010EC03A
:10065000812C912CA12C80E4B82E08C08FE99FE05A
:100660000197F1F700C000000F5F1F4F20E030E05E
:10067000A90167E3CE010E94D900A501940169E2B6
:10068000CE010E94D9008987882331F00D32E1E044
:100690001E0721F788E00DC08A858230F9F420E03A
:1006A00030E0A9016AE3CE010E94D900882329F035
:1006B00086E08C832A9AF12C12C08FEF0E94BE0430
:1006C000807C803C11F483E08A878FEF0E94BE0417
:1006D0008FEF0E94BE048FEF0E94BE042A9A8F2DD6
:1006E000DF91CF911F910F91FF90EF90BF90AF904E
:1006F0009F908F9008951F93CF93DF93EC01162F57
:100700000E94C0001887DF91CF911F910895EF924A
:10071000FF920F931F930115110519F00E945501C7
:1007200001C081E01F910F91FF90EF900895EF922B
:10073000FF920F931F93790100E012E020E030E078
:100740000E9455011F910F91FF90EF9008950F9314
:100750001F93CF93DF93EC018B0188E592E00E9419
:10076000A100882349F0A8016CEFCE01DF91CF9161
:100770001F910F910C94720083E18C832A9A80E080
:10078000DF91CF911F910F9108950F931F93CF93F6
:10079000DF93EC0189018A85833039F089E0440FC9
:1007A000551F661F771F8A95D1F79A01AB0168E143
:1007B000CE010E94D900882311F084E019C0A8015D
:1007C0006EEFCE010E9472008823E1F088E592E08E
:1007D0000E94A100811102C085E10AC020E030E042
:1007E000A9016DE0CE010E94D900882319F084E1AF
:1007F0008C8308C08FEF0E94BE048111F8CF2A9A23
:1008000081E002C02A9A80E0DF91CF911F910F9181
:1008100008958F929F92AF92BF92CF92DF92EF9204
:10082000FF920F931F93CF93DF93EC016A017B013B
:100830004801590120E030E0A90167E30E94D90096
:10084000A501940167E1CE010E94D900882311F02F
:1008500087E013C08A85833039F089E0CC0CDD1C39
:10086000EE1CFF1C8A95D1F7A701960169E1CE0124
:100870000E94D900882329F085E08C832A9A80E0A1
:1008800001C081E0DF91CF911F910F91FF90EF9018
:10089000DF90CF90BF90AF909F908F900895CF93AF
:1008A000DF93EC0188E592E00E94A100882361F0CB
:1008B0008DEF0E94BE0488E592E00E94A10088238B
:1008C00019F02A9A81E004C080E18C832A9A80E0A2
:1008D000DF91CF910895092E000CAA0BBB0B9C0150
:1008E000AD0184E0220F331F441F551F8A95D1F7B5
:1008F00060E074E284EF90E00E94630521503109CA
:100900003093C5002093C40088E18093C10086E045
:100910008093C200E0ECF0E080818D7F80830895B9
:100920009091C00095FFFCCF8093C6000895CF93AF
:10093000C82F8A3019F48DE00E9490048C2F0E94F9
:10094000900480E090E0CF9108958091C00087FFEF
:10095000FCCF8091C600089580E895E20E946B0468
:1009600080E091E09093570180935601089584B1FF
:100970008C6284B92A9A80E58CBD08958EBD0DB431
:1009800007FEFDCF8EB50895CF92DF92EF92FF92D2
:100990000F931F93CF93DF93CDB7DEB7CB50D240E9
:1009A0000FB6F894DEBF0FBECDBF0E94AC040E940C
:1009B000B704CE018F5F9D4F0E94D002C65FDD4F0E
:1009C0008881CA50D2401F928F938EE091E09F930E
:1009D0008F930E948505CB5FDD4F8881C550D24043
:1009E0001F928F9389E191E09F938F930E948505D9
:1009F000C55FDD4F8881CB50D2401F928F9384E238
:100A000091E09F938F930E948505CE018F5F9D4F4C
:100A10000E94D1019F938F937F936F938DE291E01A
:100A20009F938F930E9485059E012F5F3F4F41E06A
:100A300050E060E070E0CE018F5F9D4F0E94970311
:100A40001F928F9389E391E09F938F930E94850576
:100A5000CE0101967C010FB6F894DEBF0FBECDBF6C
:100A600000E010E084E4C82E81E0D82EF7018191E7
:100A70007F011F928F931F930F93DF92CF920E945B
:100A800085050F5F1F4F0F900F900F900F900F90E5
:100A90000F900115F2E01F0749F78AE090E00E94ED
:100AA0009B0580E090E0C55FDD4F0FB6F894DEBF98
:100AB0000FBECDBFDF91CF911F910F91FF90EF90AF
:100AC000DF90CF900895A1E21A2EAA1BBB1BFD0157
:100AD0000DC0AA1FBB1FEE1FFF1FA217B307E4071D
:100AE000F50720F0A21BB30BE40BF50B661F771F75
:100AF000881F991F1A9469F7609570958095909555
:100B00009B01AC01BD01CF010895A0E0B0E0EBE88E
:100B1000F5E00C944308AE014B5F5F4FFA01619121
:100B20007191AF0180915601909157010E94A205E9
:100B3000E2E00C945F0860915601709157010E94A9
:100B400099070895ABE0B0E0E8EAF5E00C943308CB
:100B50006C017B018A01FC0117821682838181FF6F
:100B6000CCC1CE0101963C01F6019381F70193FDC2
:100B7000859193FF81917F01882309F4BAC1853261
:100B800039F493FD859193FF81917F01853229F49A
:100B9000B60190E00E949907E7CF912C212C312CCF
:100BA000FFE1F315D8F08B3279F038F4803279F028
:100BB0008332A1F4232D20611DC08D3261F080337A
:100BC00069F4232D216016C0832D8260382EE32D19
:100BD000E4603E2E2AC0F32DF8601DC037FC2DC006
:100BE00020ED280F2A3040F08E32B9F436FC81C156
:100BF000232D2064322E19C036FE06C08AE0989E4E
:100C0000200D1124922E11C0EAE02E9E200D1124F9
:100C1000222EF32DF0623F2E08C08C3621F4832D56
:100C20008068382E02C0883641F4F70193FD859123
:100C300093FF81917F018111B3CF982F9F7D9554B0
:100C4000933028F40C5F1F4F9FE399830DC08336C8
:100C500031F0833771F0833509F059C021C0F801B4
:100C6000808189830E5F1F4F88248394912C5301C8
:100C700013C02801F2E04F0E511CF801A080B18092
:100C800036FE03C0692D70E002C06FEF7FEFC50133
:100C90000E948E074C018201F32DFF773F2E16C074
:100CA000280122E0420E511CF801A080B18036FEDE
:100CB00003C0692D70E002C06FEF7FEFC5010E9495
:100CC00083074C01F32DF0683F2E820133FC1BC0DB
:100CD000822D90E088169906B0F4B60180E290E08B
:100CE0000E9499072A94F4CFF50137FC859137FECD
:100CF00081915F01B60190E00E94990721102A942A
:100D000021E0821A91088114910471F7E8C08436B9
:100D100011F0893641F5F80137FE07C06081718115
:100D2000828193810C5F1F4F08C060817181072E03
:100D3000000C880B990B0E5F1F4FF32DFF763F2E93
:100D400097FF09C090958095709561957F4F8F4F63
:100D50009F4FF0683F2E2AE030E0A3010E94D507A4
:100D6000882E861845C0853731F4232D2F7EB22E6C
:100D70002AE030E025C0932D997FB92E8F36C1F03F
:100D800018F4883579F0B5C0803719F0883721F02C
:100D9000B0C0E92FE061BE2EB4FE0DC0FB2DF460A3
:100DA000BF2E09C034FE0AC0292F2660B22E06C00D
:100DB00028E030E005C020E130E002C020E132E070
:100DC000F801B7FE07C060817181828193810C5F59
:100DD0001F4F06C06081718180E090E00E5F1F4F61
:100DE000A3010E94D507882E8618FB2DFF773F2E82
:100DF00036FE0DC0232D2E7FA22E891458F434FE0A
:100E00000BC032FC09C0832D8E7EA82E05C0B82CE5
:100E1000A32C03C0B82C01C0B92CA4FE0FC0FE0146
:100E2000E80DF11D8081803321F49A2D997EA92E41
:100E300009C0A2FE06C0B394B39404C08A2D86787C
:100E400009F0B394A3FC11C0A0FE06C0B21488F44C
:100E5000280C922C9B180EC0B21460F4B60180E2EC
:100E600090E00E949907B394F7CFB21418F42B18AE
:100E700002C0982C212CA4FE10C0B60180E390E0A3
:100E80000E949907A2FE17C0A1FC03C088E790E06A
:100E900002C088E590E0B6010CC08A2D867859F032
:100EA000A1FE02C08BE201C080E2A7FC8DE2B60188
:100EB00090E00E949907891438F4B60180E390E02D
:100EC0000E9499079A94F7CF8A94F301E80DF11DD7
:100ED0008081B60190E00E9499078110F5CF222011
:100EE00009F442CEB60180E290E00E9499072A946C
:100EF000F6CFF6018681978102C08FEF9FEF2B9688
:100F0000E2E10C944F08FC01059061507040011023
:100F1000D8F7809590958E0F9F1F0895FC01615022
:100F2000704001900110D8F7809590958E0F9F1F0B
:100F300008950F931F93CF93DF93FB01238121FD2E
:100F400003C08FEF9FEF2CC022FF16C04681578150
:100F5000248135814217530744F4A081B1819D015A
:100F60002F5F3F4F318320838C93268137812F5F02
:100F70003F4F3783268314C08B01EC01FB010084B3
:100F8000F185E02D0995892BE1F6D80116968D9112
:100F90009C911797019617969C938E931697CE0166
:100FA000DF91CF911F910F910895FA01AA27283060
:100FB00051F1203181F1E8946F936E7F6E5F7F4F26
:100FC0008F4F9F4FAF4FB1E03ED0B4E03CD0670FA2
:100FD000781F891F9A1FA11D680F791F8A1F911DF5
:100FE000A11D6A0F711D811D911DA11D20D009F445
:100FF00068943F912AE0269F11243019305D319387
:10100000DEF6CF010895462F4770405D4193B3E06F
:101010000FD0C9F7F6CF462F4F70405D4A3318F016
:10102000495D31FD4052419302D0A9F7EACFB4E0C7
:10103000A6959795879577956795BA95C9F700977F
:101040006105710508959B01AC010A2E0694579520
:10105000479537952795BA95C9F7620F731F841F77
:10106000951FA01D08952F923F924F925F926F920D
:101070007F928F929F92AF92BF92CF92DF92EF9228
:10108000FF920F931F93CF93DF93CDB7DEB7CA1BA9
:10109000DB0B0FB6F894DEBF0FBECDBF09942A88D4
:1010A000398848885F846E847D848C849B84AA847C
:1010B000B984C884DF80EE80FD800C811B81AA8109
:1010C000B981CE0FD11D0FB6F894DEBF0FBECDBFD4
:0810D000ED010895F894FFCF33
:1010D8000000000200000000970400000000737484
:1010E800617475733D25780A006572726575723D85
:1010F80025780A00747970653D25780A007461695D
:101108006C6C653D256C640A007374617475743D7C
:1011180025780A00626C6F635B25645D3D20257845
:041128000A20000099
:00000001FF
