:100000000C9434000C9451000C9451000C94510049
:100010000C9451000C9451000C9451000C9451001C
:100020000C9451000C9451000C9451000C9451000C
:100030000C9451000C9451000C9451000C945100FC
:100040000C9451000C9451000C9451000C945100EC
:100050000C9451000C9451000C9451000C945100DC
:100060000C9451000C94510011241FBECFEFD8E026
:10007000DEBFCDBF11E0A0E0B1E0E8E3F1E102C0F6
:1000800005900D92A235B107D9F721E0A2E5B1E0C4
:1000900001C01D92A835B207E1F70E94F5040C9447
:1000A0009A080C9400000F931F93CF93DF93EC01F9
:1000B0000EE211E08FEF0E94EF0489878F3F39F441
:1000C0000150110901151105A9F78FE003C08E3FFA
:1000D00029F08DE08C835C9A80E001C081E0DF91A3
:1000E000CF911F910F910895CF92DF92EF92FF92DF
:1000F0000F931F93CF93DF9300D0CDB7DEB77C0172
:10010000862F49835A830E94EF044981C42E5A8165
:10011000D52E00E010E0F60181916F010E94EF04FE
:100120000F5F1F4F0115F2E01F07A9F78FEF0E9425
:10013000EF048FEF0E94EF048FEF0E94EF04F701AE
:1001400081878F71853029F081E184835C9A80E01A
:1001500001C081E00F900F90DF91CF911F910F911F
:10016000FF90EF90DF90CF9008950F931F93CF9360
:10017000DF938C01C0E0D0E0C017D10769F08FEFAA
:100180000E94EF048F3F51F08FE99FE00197F1F754
:1001900000C000002196F0CF80E001C081E0DF9137
:1001A000CF911F910F910895CF93DF93EC018D8133
:1001B000882381F08E819F819C012F5F3F4F3F8379
:1001C0002E838230924020F48FEF0E94EF04F2CF12
:1001D0005C9A1D82DF91CF910895CF92DF92FF92BA
:1001E0000F931F93CF93DF9300D000D0CDB7DEB72E
:1001F0006C01F62E29833A834B835C830E94D400E2
:100200005C988EE190E00E94B5008F2D80640E9482
:10021000EF0408E110E05C814B813A812981DA0129
:10022000C901002E04C0B695A795979587950A94A5
:10023000D2F729833A834B835C830E94EF040850F2
:10024000110929813A814B815C81083F8FEF1807A2
:1002500031F7FF2029F0E8E0FE1621F08FEF03C010
:1002600085E901C087E80E94EF0410E08FEF0E944B
:10027000EF04F601818787FF04C01F3F11F01F5F65
:10028000F5CF0F900F900F900F90DF91CF911F91AE
:100290000F91FF90DF90CF9008950F931F93CF930E
:1002A000DF93EC018A0120E030E0A9010E94ED001B
:1002B000882319F08EE08C831AC0CE010E9453006F
:1002C0008823A9F0E80100E010E08FEF0E94EF041E
:1002D00089930F5F1F4F00311105B9F78FEF0E940F
:1002E000EF048FEF0E94EF045C9A81E002C05C9AF9
:1002F00080E0DF91CF911F910F910895AB016AE0EB
:100300000C944D01AB0169E00C944D010F931F93C8
:10031000CF93DF93CDB7DEB760970FB6F894DEBF0B
:100320000FBECDBF8C01BE016F5F7F4F0E94820167
:10033000882309F45AC08981807C79F56F816370C4
:1003400070E0762F6627770F770F888524E0829FED
:10035000C0011124682B792B898582958695869515
:100360008370682B6F5F7F4F80E090E04A85437019
:10037000440F2B8527FB222720F9422B2E812F703B
:1003800030E0240F311D2750310904C0660F771F5C
:10039000881F991F2A95D2F72BC0803419F56885DC
:1003A00066956695862F90E0A0E0B0E077276627F7
:1003B0002A85622B098510E0102F0027222717FDC0
:1003C0002095322F602B712B822B932B6F5F7F4FE9
:1003D0008F4F9F4F4AE0660F771F881F991F4A95DE
:1003E000D1F706C089E0F801848360E070E0CB01BA
:1003F00060960FB6F894DEBF0FBECDBFDF91CF91F0
:100400001F910F910895CF93DF93CDB7DEB760971B
:100410000FB6F894DEBF0FBECDBFBE016F5F7F4F3A
:100420000E948201882329F08B8586FB882780F92A
:1004300001C080E060960FB6F894DEBF0FBECDBF5E
:10044000DF91CF910895AF92BF92CF92DF92EF925A
:10045000FF920F931F93CF93DF9300D000D0CDB7BF
:10046000DEB75C016801790149835A836B837C8321
:100470000E94030249815A816B817C81811102C0F3
:100480008BE034C0F5018285833071F0E9E0440FE0
:10049000551F661F771FEA95D1F7F9E0CC0CDD1CDC
:1004A000EE1CFF1CFA95D1F79A01AB0160E2C50181
:1004B0000E94ED00882311F08AE018C0A701960180
:1004C00061E2C5010E94ED008111F6CF20E030E02D
:1004D000A90166E2C5010E94ED008111EDCF80E126
:1004E00097E20E94B500811106C08CE0F50184837B
:1004F0005C9A80E002C05C9A81E00F900F900F90B0
:100500000F90DF91CF911F910F91FF90EF90DF90AF
:10051000CF90BF90AF900895BF92CF92DF92EF92AD
:10052000FF920F931F93CF93DF93EC018BE0FE01BB
:1005300011928A95E9F7549A5C9A1AE0B12E8FEFDE
:100540000E94EF04BA94D9F75C9800E010E020E034
:1005500030E0A90160E0CE010E94ED00F82E89870D
:1005600091E0891779F00D32F1E01F0711F481E075
:100570005BC08FE99FE00197F1F700C000000F5FBB
:100580001F4FE5CF2AEA31E040E050E068E0CE01BD
:100590000E94ED0082FF02C0FA860EC0B4E0FB2E7E
:1005A0008FEF0E94EF048987FA94D1F78A3A11F00D
:1005B00082E03AC082E08A878A85823031F4C12C99
:1005C000D12CE12CA0E4FA2E0CC0C12CD12C760148
:1005D00008C08FE99FE00197F1F700C000000F5FAE
:1005E0001F4F20E030E0A90167E3CE010E94ED003B
:1005F000A701960169E2CE010E94ED008987882358
:1006000031F00D32E1E01E0721F788E00DC08A8548
:100610008230F1F420E030E0A9016AE3CE010E94CB
:10062000ED00882321F086E08C835C9A14C08FEF64
:100630000E94EF04807C803C11F483E08A878FEF76
:100640000E94EF048FEF0E94EF048FEF0E94EF04EF
:100650005C9ABB24B3948B2DDF91CF911F910F91A6
:10066000FF90EF90DF90CF90BF9008950F931F936E
:10067000CF93DF931F92CDB7DEB78C0169830E94C1
:10068000D4006981F80160870F90DF91CF911F91AD
:100690000F910895CF92DF92EF92FF920F931F93E5
:1006A000CF93DF93EC0169010115110509F464C0D2
:1006B000C801820F931F8130924008F05FC08D8186
:1006C000882371F088819981AA81BB8148175907D5
:1006D0006A077B0729F48E819F81C816D90610F519
:1006E000488359836A837B838A85833039F089E024
:1006F000440F551F661F771F8A95D1F79A01AB01EA
:1007000061E1CE010E94ED00882319F083E08C8323
:1007100035C0CE010E945300882381F11F821E82C2
:1007200081E08D838E819F818C159D0548F48FEF2C
:100730000E94EF048E819F8101969F838E83F2CF6A
:100740006701E00EF11ECE14DF0439F08FEF0E9436
:10075000EF04F60181936F01F6CF8E819F81800FA8
:10076000911F9F838E832885222319F08115924043
:1007700018F0CE010E94D40081E002C05C9A80E0B3
:10078000DF91CF911F910F91FF90EF90DF90CF906D
:100790000895EF92FF920F931F93790100E012E00A
:1007A00020E030E00E944A031F910F91FF90EF90EC
:1007B00008950F931F93CF93DF93EC018B0188E58E
:1007C00092E00E94B500882349F0A8016CEFCE01A9
:1007D000DF91CF911F910F910C94740083E18C8372
:1007E0005C9A80E0DF91CF911F910F9108950F9354
:1007F0001F93CF93DF93EC0189018A85833039F011
:1008000099E0440F551F661F771F9A95D1F79A01FB
:10081000AB0168E1CE010E94ED00882311F084E075
:1008200019C0A8016EEFCE010E9474008823E1F088
:1008300088E592E00E94B500811102C085E10AC0FE
:1008400020E030E0A9016DE0CE010E94ED00882398
:1008500019F084E18C8308C08FEF0E94EF048111AE
:10086000F8CF5C9A81E002C05C9A80E0DF91CF9182
:100870001F910F9108958F929F92AF92BF92CF9246
:10088000DF92EF92FF920F931F93CF93DF93EC01D0
:100890006A017B014801590120E030E0A90167E3CA
:1008A0000E94ED00A501940167E1CE010E94ED00D8
:1008B000882311F087E013C08A85833039F029E05E
:1008C000CC0CDD1CEE1CFF1C2A95D1F7A70196016C
:1008D00069E1CE010E94ED00882329F085E08C8338
:1008E0005C9A80E001C081E0DF91CF911F910F9170
:1008F000FF90EF90DF90CF90BF90AF909F908F9040
:100900000895CF93DF93EC0188E592E00E94B50053
:10091000882361F08DEF0E94EF0488E592E00E9449
:10092000B500882319F05C9A81E004C080E18C83D3
:100930005C9A80E0DF91CF9108959C01442737FDB8
:100940004095542F84E0220F331F441F551F8A9572
:10095000D1F760E074E284EF90E00E9493052150AB
:1009600031093093C5002093C40088E18093C10011
:1009700086E08093C200E0ECF0E080818D7F808390
:1009800008959091C00095FFFCCF8093C600089514
:10099000CF93C82F8A3019F48DE00E94C1048C2FA8
:1009A0000E94C10480E090E0CF9108958091C00042
:1009B00087FFFCCF8091C600089580E895E20E94F1
:1009C0009D0480E091E09093550180935401089537
:1009D00084B18C6284B92A9A80E58CBD08958EBD5D
:1009E0000DB407FEFDCF8EB50895CF92DF92EF9242
:1009F000FF920F931F93CF93DF93CDB7DEB7CB500A
:100A0000D2400FB6F894DEBF0FBECDBF0E94DD040A
:100A10000E94E804CE018F5F9D4F0E948C02C65F4A
:100A2000DD4F8881CA50D2401F928F938EE091E0B3
:100A30009F938F930E94B505CB5FDD4F8881C55092
:100A4000D2401F928F9389E191E09F938F930E94F0
:100A5000B505C55FDD4F8881CB50D2401F928F9383
:100A600084E291E09F938F930E94B505CE018F5F42
:100A70009D4F0E9486019F938F937F936F938DE28A
:100A800091E09F938F930E94B5059E012F5F3F4F8A
:100A900040E150E060E070E0CE018F5F9D4F0E942A
:100AA000C9031F928F9389E391E09F938F930E94D4
:100AB000B505CE0101967C010FB6F894DEBF0FBEDE
:100AC000CDBF00E010E084E4C82E81E0D82EF7010D
:100AD00081917F011F928F931F930F93DF92CF928B
:100AE0000E94B5050F5F1F4F0F900F900F900F9052
:100AF0000F900F900330110551F78AE090E00E94AB
:100B0000CB0580E090E0C55FDD4F0FB6F894DEBF07
:100B10000FBECDBFDF91CF911F910F91FF90EF904E
:100B2000DF90CF900895A1E21A2EAA1BBB1BFD01F6
:100B30000DC0AA1FBB1FEE1FFF1FA217B307E407BC
:100B4000F50720F0A21BB30BE40BF50B661F771F14
:100B5000881F991F1A9469F76095709580959095F4
:100B60009B01AC01BD01CF010895A0E0B0E0EBEB2B
:100B7000F5E00C947308AE014B5F5F4FFA01619191
:100B80007191AF0180915401909155010E94D2055D
:100B9000E2E00C948F0860915401709155010E941D
:100BA000C9070895ABE0B0E0E8EDF5E00C94630808
:100BB0006C017B018A01FC0117821682838181FF0F
:100BC000CCC1CE0101963C01F6019381F70193FD62
:100BD000859193FF81917F01882309F4BAC1853201
:100BE00039F493FD859193FF81917F01853229F43A
:100BF000B60190E00E94C907E7CF912C212C312C3F
:100C0000FFE1F315D8F08B3279F038F4803279F0C7
:100C10008332A1F4232D20611DC08D3261F0803319
:100C200069F4232D216016C0832D8260382EE32DB8
:100C3000E4603E2E2AC0F32DF8601DC037FC2DC0A5
:100C400020ED280F2A3040F08E32B9F436FC81C1F5
:100C5000232D2064322E19C036FE06C08AE0989EED
:100C6000200D1124922E11C0EAE02E9E200D112499
:100C7000222EF32DF0623F2E08C08C3621F4832DF6
:100C80008068382E02C0883641F4F70193FD8591C3
:100C900093FF81917F018111B3CF982F9F7D955450
:100CA000933028F40C5F1F4F9FE399830DC0833668
:100CB00031F0833771F0833509F059C021C0F80154
:100CC000808189830E5F1F4F88248394912C530168
:100CD00013C02801F2E04F0E511CF801A080B18032
:100CE00036FE03C0692D70E002C06FEF7FEFC501D3
:100CF0000E94BE074C018201F32DFF773F2E16C0E4
:100D0000280122E0420E511CF801A080B18036FE7D
:100D100003C0692D70E002C06FEF7FEFC5010E9434
:100D2000B3074C01F32DF0683F2E820133FC1BC04A
:100D3000822D90E088169906B0F4B60180E290E02A
:100D40000E94C9072A94F4CFF50137FC859137FE3C
:100D500081915F01B60190E00E94C90721102A9499
:100D600021E0821A91088114910471F7E8C0843659
:100D700011F0893641F5F80137FE07C060817181B5
:100D8000828193810C5F1F4F08C060817181072EA3
:100D9000000C880B990B0E5F1F4FF32DFF763F2E33
:100DA00097FF09C090958095709561957F4F8F4F03
:100DB0009F4FF0683F2E2AE030E0A3010E94050813
:100DC000882E861845C0853731F4232D2F7EB22E0C
:100DD0002AE030E025C0932D997FB92E8F36C1F0DF
:100DE00018F4883579F0B5C0803719F0883721F0CC
:100DF000B0C0E92FE061BE2EB4FE0DC0FB2DF46043
:100E0000BF2E09C034FE0AC0292F2660B22E06C0AC
:100E100028E030E005C020E130E002C020E132E00F
:100E2000F801B7FE07C060817181828193810C5FF8
:100E30001F4F06C06081718180E090E00E5F1F4F00
:100E4000A3010E940508882E8618FB2DFF773F2EF0
:100E500036FE0DC0232D2E7FA22E891458F434FEA9
:100E60000BC032FC09C0832D8E7EA82E05C0B82C85
:100E7000A32C03C0B82C01C0B92CA4FE0FC0FE01E6
:100E8000E80DF11D8081803321F49A2D997EA92EE1
:100E900009C0A2FE06C0B394B39404C08A2D86781C
:100EA00009F0B394A3FC11C0A0FE06C0B21488F4EC
:100EB000280C922C9B180EC0B21460F4B60180E28C
:100EC00090E00E94C907B394F7CFB21418F42B181E
:100ED00002C0982C212CA4FE10C0B60180E390E043
:100EE0000E94C907A2FE17C0A1FC03C088E790E0DA
:100EF00002C088E590E0B6010CC08A2D867859F0D2
:100F0000A1FE02C08BE201C080E2A7FC8DE2B60127
:100F100090E00E94C907891438F4B60180E390E09C
:100F20000E94C9079A94F7CF8A94F301E80DF11D46
:100F30008081B60190E00E94C9078110F5CF222080
:100F400009F442CEB60180E290E00E94C9072A94DB
:100F5000F6CFF6018681978102C08FEF9FEF2B9627
:100F6000E2E10C947F08FC01059061507040011093
:100F7000D8F7809590958E0F9F1F0895FC016150C2
:100F8000704001900110D8F7809590958E0F9F1FAB
:100F900008950F931F93CF93DF93FB01238121FDCE
:100FA00003C08FEF9FEF2CC022FF16C046815781F0
:100FB000248135814217530744F4A081B1819D01FA
:100FC0002F5F3F4F318320838C93268137812F5FA2
:100FD0003F4F3783268314C08B01EC01FB01008453
:100FE000F185E02D0995892BE1F6D80116968D91B2
:100FF0009C911797019617969C938E931697CE0106
:10100000DF91CF911F910F910895FA01AA272830FF
:1010100051F1203181F1E8946F936E7F6E5F7F4FC5
:101020008F4F9F4FAF4FB1E03ED0B4E03CD0670F41
:10103000781F891F9A1FA11D680F791F8A1F911D94
:10104000A11D6A0F711D811D911DA11D20D009F4E4
:1010500068943F912AE0269F11243019305D319326
:10106000DEF6CF010895462F4770405D4193B3E00F
:101070000FD0C9F7F6CF462F4F70405D4A3318F0B6
:10108000495D31FD4052419302D0A9F7EACFB4E067
:10109000A6959795879577956795BA95C9F700971F
:1010A0006105710508959B01AC010A2E06945795C0
:1010B000479537952795BA95C9F7620F731F841F17
:1010C000951FA01D08952F923F924F925F926F92AD
:1010D0007F928F929F92AF92BF92CF92DF92EF92C8
:1010E000FF920F931F93CF93DF93CDB7DEB7CA1B49
:1010F000DB0B0FB6F894DEBF0FBECDBF09942A8874
:10110000398848885F846E847D848C849B84AA841B
:10111000B984C884DF80EE80FD800C811B81AA81A8
:10112000B981CE0FD11D0FB6F894DEBF0FBECDBF73
:08113000ED010895F894FFCFD2
:101138000000000200000000C804000000007374F2
:10114800617475733D25780A006572726575723D24
:1011580025780A00747970653D25780A00746169FC
:101168006C6C653D256C640A007374617475743D1C
:1011780025780A00626C6F635B25645D3D257820E5
:02118800000065
:00000001FF
