:100000000C9401020C940B020C940B020C940B0246
:100010000C940B020C940B020C940B020C940B022C
:100020000C940B020C940B020C940B020C940B021C
:100030000C940B020C940B020C940B020C940B020C
:100040000C940B020C940B020C940B020C940B02FC
:100050000C940B020C940B020C940B020C940B02EC
:100060000C940B020C940B02577269746520737523
:10007000636365737366756C0D0A000D0A526573D0
:10008000706F6E73653A0D0A0057726974696E6716
:10009000203078353520746F20736563746F723A41
:1000A000203078004572726F7220746F6B656E3A03
:1000B0000D0A000D0A526573706F6E73653A0D0A72
:1000C000000D0A52656164696E6720736563746F21
:1000D000723A203078005344204361726420696E84
:1000E000697469616C697A65640D0A004572726FA2
:1000F0007220696E697469616C697A696E672053F0
:100100004420434152440D0A00094572726F720D3A
:100110000A00094343204572726F720D0A000943B9
:1001200061726420454343206661696C65640D0A11
:10013000000944617461206F7574206F66207261DC
:100140006E67650D0A00094E6F74204572726F72FA
:1001500020746F6B656E0D0A000D0A000D0A000D0C
:100160000A00094465766963652053697A653A2017
:10017000000D0A00095452414E5F53504545443A20
:1001800020000D0A00094E5341433A20000D0A0099
:1001900009544141433A20000D0A000943534420C9
:1001A0005374727563747572653A20004353443A10
:1001B0000D0A000D0A00094563686F3A20004E4F92
:1001C0005420444546494E45440D0A005245534586
:1001D000525645440D0A0052455345525645440D6A
:1001E0000A004C4F5720564F4C544147450D0A00CA
:1001F000322E372D332E36560D0A0009566F6C7489
:100200006167652041636365707465643A20000D21
:100210000A0009436F6D6D616E64205665727369E3
:100220006F6E3A20000D0A00332E352D332E360026
:10023000332E342D332E352C2000332E332D332EF8
:10024000342C2000332E322D332E332C2000332E2D
:10025000312D332E322C2000332E302D332E312CE5
:100260002000322E392D332E302C2000322E382D06
:10027000322E392C2000322E372D322E382C2000F1
:10028000095644442057696E646F773A20004255FE
:1002900053590D0A00300D0A00310D0A000943437D
:1002A00053205374617475733A2000524541445988
:1002B0000D0A00094361726420506F776572205502
:1002C00070205374617475733A200009436172643D
:1002D000204C6F636B65640D0A000957502045720E
:1002E00061736520536B69700D0A00094572726F66
:1002F000720D0A00094343204572726F720D0A00A5
:1003000009454343204661696C65640D0A0009573D
:10031000502056696F6C6174696F6E0D0A00094553
:100320007261736520506172616D657465720D0A4A
:1003300000094F7574206F662052616E67650D0A63
:1003400000094E6F205232204572726F720D0A0002
:1003500009496E2049646C652053746174650D0A07
:10036000000945726173652052657365742045729A
:10037000726F720D0A0009496C6C6567616C2043ED
:100380006F6D6D616E640D0A000943524320457222
:10039000726F720D0A0009457261736520536571B1
:1003A00075656E6365204572726F720D0A000941B2
:1003B000646472657373204572726F720D0A00096E
:1003C000506172616D65746572204572726F720D55
:1003D0000A0009436172642052656164790D0A0064
:1003E000094572726F723A204D5342203D20310D03
:1003F0000A00094E6F20726573706F6E73650D0A87
:10040000000011241FBECFEFD8E0DEBFCDBF0E9499
:100410006A060C94FD060C940000CF932A9A8FE391
:100420009CE90197F1F700C000008FEF0E941806C9
:100430002A9AC0E58FEF0E941806C150D9F7CF91D4
:100440000895FF920F931F93CF93DF93D42F152F0F
:10045000062FF72EC22F80640E9418068F2D0E944F
:100460001806802F0E941806812F0E9418068D2FD3
:100470000E9418068C2F8160DF91CF911F910F9100
:10048000FF900C941806CF93C9E08FEF0E941806D6
:100490008F3F11F4C150C9F7CF910895CF93DF93E7
:1004A000EC010E94430288838FEF0E941806898323
:1004B000DF91CF9108950F931F93CF938C01C62F97
:1004C000CC2341F08FEF0E941806F80181938F0131
:1004D000C150F6CFCF911F910F910895CF93DF9325
:1004E000EC010E9443028883823038F464E0CE013C
:1004F0000196DF91CF910C945B02DF91CF9108952B
:100500000C946E02CF938FEF0E9418062A988FEFFB
:100510000E94180624E940E050E0BA0180E00E9401
:1005200021020E944302C82F8FEF0E9418062A9AC8
:100530008FEF0E9418068C2FCF910895CF93DF93F1
:10054000EC018FEF0E9418062A988FEF0E94180680
:1005500026E84AEA51E060E070E088E00E9421026B
:10056000CE010E946E028FEF0E9418062A9A8FEF2A
:10057000DF91CF910C941806CF93DF93EC018FEFAE
:100580000E9418062A988FEF0E94180620E040E08B
:1005900050E0BA018DE00E942102CE010E944E027D
:1005A0008FEF0E9418062A9A8FEFDF91CF910C945B
:1005B00018068F929F92AF92BF92CF92DF92EF92E6
:1005C000FF920F931F93CF93DF934B015C016A015E
:1005D00079018FEFF90180830E9418062A988FEF26
:1005E0000E94180620E0B501A40181E10E942102C9
:1005F0000E944302082F8F3F09F1CBE1D6E02197FB
:1006000039F08FEF0E941806182F8F3FC1F302C0F8
:100610001FEF12C08E3F81F4E601FEEFDF1A8FEF6D
:100620000E9418068993CC16DD06C9F78FEF0E9449
:1006300018068FEF0E941806F70110838FEF0E94B3
:1006400018062A9A8FEF0E941806802FDF91CF910B
:100650001F910F91FF90EF90DF90CF90BF90AF90E0
:100660009F908F9008958F929F92AF92BF92CF925A
:10067000DF92FF920F931F93CF93DF934B015C01A7
:100680006A0189018FEFF90180830E9418062A9878
:100690008FEF0E94180620E0B501A40188E10E94B6
:1006A00021020E944302F82E811128C08EEF0E9481
:1006B0001806E601FEEFDF1A89910E941806CC1594
:1006C000DD05D1F7C3E4DFE021978FEF39F00E9419
:1006D00018068F3FC9F39FEFF80190838F71853023
:1006E00069F4F8018083C3E4DFE08FEF0E9418060D
:1006F000811104C02197C9F7F80110828FEF0E9481
:1007000018062A9A8FEF0E9418068F2DDF91CF913D
:100710001F910F91FF90DF90CF90BF90AF909F906F
:100720008F900895CF93DF93EC018FEF0E9418060E
:100730002A988FEF0E9418068F3FD9F720E040E0FB
:1007400050E0BA018AE30E942102CE010E946E02AB
:100750008FEF0E9418062A9A8FEFDF91CF910C94A9
:100760001806CF938FEF0E9418062A988FEF0E94E9
:10077000180620E040E050E0BA0187E30E94210221
:100780000E944302C82F8FEF0E9418062A9A8FEF0B
:100790000E9418068C2FCF910895CF938FEF0E945F
:1007A00018062A988FEF0E94180620E040E050E0DB
:1007B00060E070E489E20E9421020E944302C82F97
:1007C0008FEF0E9418062A9A8FEF0E9418068C2F2E
:1007D000CF9108950F931F93CF93DF9300D000D054
:1007E0001F92CDB7DEB70E940D021FEF0E9482025A
:1007F0008983813021F01150C9F711E02FC08FE9B2
:100800009FE00197F1F700C00000CE0101960E9421
:100810009E028981813089F78D818A3A71F70FEFC5
:100820000E94B1038983823018F40E94CD0389832A
:100830008FE99FE00197F1F700C0000019811123B3
:1008400019F0015069F7D9CF8FE99FE00197F1F7CF
:1008500000C00000CE0101960E949203812F0F90EC
:100860000F900F900F900F90DF91CF911F910F91EC
:100870000895CF938F3F19F482EF93E033C087FF41
:1008800003C080EE93E02EC0811103C082ED93E09F
:1008900029C0C82F86FF04C08FEB93E00E945B063F
:1008A000C5FF04C08EEA93E00E945B06C4FF04C04B
:1008B00086E993E00E945B06C3FF04C089E893E0E9
:1008C0000E945B06C2FF04C086E793E00E945B06BD
:1008D000C1FF04C081E693E00E945B06C0FF05C033
:1008E00080E593E0CF910C945B06CF910895CF9370
:1008F000DF93EC0188810E94390488818F3F09F4DD
:1009000041C08981811104C081E493E00E945B06AB
:10091000898187FF04C081E393E00E945B0689819F
:1009200086FF04C08EE193E00E945B06898185FF0B
:1009300004C08EE093E00E945B06898184FF04C0BE
:1009400080E093E00E945B06898183FF04C084EF0E
:1009500092E00E945B06898182FF04C08BEE92E0E8
:100960000E945B06898181FF04C08AED92E00E94AB
:100970005B06898180FF06C08BEC92E0DF91CF910E
:100980000C945B06DF91CF910895CF93DF93EC0138
:1009900088810E9439048881823008F065C083EB29
:1009A00092E00E945B06898186FF11C08BEA92E08B
:1009B0000E945B068DE992E00E945B06898186FFBA
:1009C00003C089E992E005C085E992E002C08EE8A3
:1009D00092E00E945B0680E892E00E945B068B81B9
:1009E00087FF04C086E792E00E945B068A8180FF51
:1009F00004C08CE692E00E945B068A8181FF04C0FD
:100A000082E692E00E945B068A8182FF04C088E54C
:100A100092E00E945B068A8183FF04C08EE492E02C
:100A20000E945B068A8184FF04C084E492E00E94F5
:100A30005B068A8185FF04C08AE392E00E945B0620
:100A40008A8186FF04C080E392E00E945B068A816F
:100A500087FF04C088E292E00E945B0685E292E094
:100A6000DF91CF910C945B06DF91CF910895CF93E6
:100A7000DF93EC0188810E94390488818230B0F5CF
:100A800082E192E00E945B0680E00E943C068FE0DB
:100A900092E00E945B068BEF91E00E945B068B81E7
:100AA0008F71813019F480EF91E011C0823019F418
:100AB00082EE91E00CC0843019F487ED91E007C01C
:100AC000883019F48CEC91E002C08EEB91E00E942A
:100AD0005B0686EB91E00E945B068C810E943C06DF
:100AE00083EB91E0DF91CF910C945B06DF91CF9186
:100AF0000895CF93DF93EC018CEA91E00E945B06AE
:100B00008BE991E00E945B068881829586958695A7
:100B100083700E943C0688E991E00E945B0680E9B0
:100B200091E00E945B0689810E943C068DE891E07D
:100B30000E945B0685E891E00E945B068A810E9424
:100B40003C0682E891E00E945B0684E791E00E9407
:100B50005B068B810E943C0681E791E00E945B0668
:100B600082E691E00E945B068F818F730E943C06B3
:100B700088850E943C0689850E943C068FE591E0AD
:100B8000DF91CF910C945B06EF92FF921F93CF936E
:100B9000DF93EC017C018EEFF81A10E089910E943E
:100BA0003C06133131F48CE591E00E945B0610E0C5
:100BB00004C080E20E9429061F5FEC16FD0671F753
:100BC00089E591E0DF91CF911F91FF90EF900C9418
:100BD0005B06CF93C82F807F21F086E491E00E94CE
:100BE0005B06C3FF04C081E391E00E945B06C2FF85
:100BF00004C08EE191E00E945B06C1FF04C082E167
:100C000091E00E945B06C0FF05C089E091E0CF91B2
:100C10000C945B06CF91089524B12C6224B9249AD8
:100C20002CB52064922B9CBD9DB5892B8DBD08955C
:100C30008EBD0DB407FEFDCF8EB508951092C50090
:100C400087E68093C400E1ECF0E0808188618083D6
:100C500008959091C00095FFFCCF8093C600089541
:100C6000CF93DF93EC01899118161CF40E9429069A
:100C7000FACFDF91CF910895CF93282F22952F702F
:100C8000982F9F702A3010F480E301C087E3820F11
:100C90009A3010F4C0E301C0C7E3C90F0E942906CF
:100CA0008C2FCF910C9429068091C00087FFFCCF38
:100CB0008091C6000895CF93DF93FC018491EF01EA
:100CC0002196882321F00E942906FE01F7CFDF91AB
:100CD000CF910895CF93DF93CDB7DEB7C150D24007
:100CE0000FB6F894DEBF0FBECDBF0E941E0680E097
:100CF00093E10E940C060E94EA03882329F08CEEFF
:100D000090E00E945B0678C086ED90E00E945B0652
:100D100081EC90E00E945B0680E00E943C0680E04F
:100D20000E943C0680E00E943C0680E00E943C0657
:100D30007E018FEFE81A8DEFF80A9701AE014F5F41
:100D40005F4F60E070E0CB010E94D902182F83EB67
:100D500090E00E945B06812F0E94390411110DC0A2
:100D6000F70180818E3F49F4CE0101960E94C405AF
:100D70008E010F5F1F4F8AEC0DC0F7018081807FCD
:100D8000B9F784EA90E00E945B06F70180810E9437
:100D9000E905EECFF80181938F01EE15FF05D1F73C
:100DA00089E890E00E945B0680E00E943C0680E0BB
:100DB0000E943C0680E00E943C0681E00E943C06C6
:100DC0009801AE014F5F5F4F61E070E080E090E01E
:100DD0000E943303F82E8BE790E00E945B068F2D74
:100DE0000E943904F11008C0F8018081853021F497
:0E0DF00088E690E00E945B06FFCFF894FFCFEC
:00000001FF
