:100000000C94E3010C94ED010C94ED010C94ED01C2
:100010000C94ED010C94ED010C94ED010C94ED01A8
:100020000C94ED010C94ED010C94ED010C94ED0198
:100030000C94ED010C94ED010C94ED010C94ED0188
:100040000C94ED010C94ED010C94ED010C94ED0178
:100050000C94ED010C94ED010C94ED010C94ED0168
:100060000C94ED010C94ED014572726F7220746F67
:100070006B656E3A0D0A000D0A526573706F6E73F0
:10008000653A0D0A000D0A52656164696E67207356
:100090006563746F723A2030780053442043617274
:1000A0006420696E697469616C697A65640D0A001F
:1000B0004572726F7220696E697469616C697A69E0
:1000C0006E6720534420434152440D0A0009457293
:1000D000726F720D0A00094343204572726F720DF0
:1000E0000A00094361726420454343206661696CDC
:1000F00065640D0A000944617461206F7574206F96
:10010000662072616E67650D0A00094E6F742045A6
:1001100072726F7220746F6B656E0D0A000D0A00AB
:100120000D0A000D0A00094465766963652053696C
:100130007A653A20000D0A00095452414E5F53502F
:100140004545443A20000D0A00094E5341433A20E8
:10015000000D0A0009544141433A20000D0A0009EC
:10016000435344205374727563747572653A20006A
:100170004353443A0D0A000D0A00094563686F3A7B
:1001800020004E4F5420444546494E45440D0A0038
:1001900052455345525645440D0A00524553455267
:1001A0005645440D0A004C4F5720564F4C5441477A
:1001B000450D0A00322E372D332E36560D0A000912
:1001C000566F6C7461676520416363657074656424
:1001D0003A20000D0A0009436F6D6D616E64205670
:1001E000657273696F6E3A20000D0A00332E352D4B
:1001F000332E3600332E342D332E352C2000332E63
:10020000332D332E342C2000332E322D332E332C2D
:100210002000332E312D332E322C2000332E302D62
:10022000332E312C2000322E392D332E302C20004D
:10023000322E382D322E392C2000322E372D322EF0
:10024000382C2000095644442057696E646F773A71
:100250002000425553590D0A00300D0A00310D0A95
:100260000009434353205374617475733A2000525C
:10027000454144590D0A00094361726420506F776B
:100280006572205570205374617475733A200009AB
:1002900043617264204C6F636B65640D0A000957FB
:1002A0005020457261736520536B69700D0A000917
:1002B0004572726F720D0A00094343204572726FD6
:1002C000720D0A0009454343204661696C65640D5F
:1002D0000A000957502056696F6C6174696F6E0D82
:1002E0000A0009457261736520506172616D657421
:1002F00065720D0A00094F7574206F662052616E99
:1003000067650D0A00094E6F205232204572726FE8
:10031000720D0A0009496E2049646C6520537461AE
:1003200074650D0A00094572617365205265736535
:1003300074204572726F720D0A0009496C6C656712
:10034000616C20436F6D6D616E640D0A000943524C
:1003500043204572726F720D0A0009457261736520
:100360002053657175656E6365204572726F720DFD
:100370000A000941646472657373204572726F727A
:100380000D0A0009506172616D65746572204572D5
:10039000726F720D0A0009436172642052656164D4
:1003A000790D0A00094572726F723A204D5342204E
:1003B0003D20310D0A00094E6F20726573706F6E1B
:1003C00073650D0A000011241FBECFEFD8E0DEBF19
:1003D000CDBF0E944C060C94AE060C940000CF9347
:1003E0002A9A8FE39CE90197F1F700C000008FEF94
:1003F0000E94FA052A9AC0E58FEF0E94FA05C150C3
:10040000D9F7CF910895FF920F931F93CF93DF9366
:10041000D42F152F062FF72EC22F80640E94FA05C5
:100420008F2D0E94FA05802F0E94FA05812F0E94CD
:10043000FA058D2F0E94FA058C2F8160DF91CF91F4
:100440001F910F91FF900C94FA05CF93C9E08FEFA5
:100450000E94FA058F3F11F4C150C9F7CF9108955A
:10046000CF93DF93EC010E94250288838FEF0E94D7
:10047000FA058983DF91CF9108950F931F93CF934E
:100480008C01C62FCC2341F08FEF0E94FA05F801B2
:1004900081938F01C150F6CFCF911F910F91089595
:1004A000CF93DF93EC010E9425028883823038F4D9
:1004B00064E0CE010196DF91CF910C943D02DF9173
:1004C000CF9108950C945002CF938FEF0E94FA05BC
:1004D0002A988FEF0E94FA0524E940E050E0BA0123
:1004E00080E00E9403020E942502C82F8FEF0E9425
:1004F000FA052A9A8FEF0E94FA058C2FCF91089562
:10050000CF93DF93EC018FEF0E94FA052A988FEFCB
:100510000E94FA0526E84AEA51E060E070E088E0CF
:100520000E940302CE010E9450028FEF0E94FA0542
:100530002A9A8FEFDF91CF910C94FA05CF93DF9336
:10054000EC018FEF0E94FA052A988FEF0E94FA05BE
:1005500020E040E050E0BA018DE00E940302CE01AD
:100560000E9430028FEF0E94FA052A9A8FEFDF91E6
:10057000CF910C94FA058F929F92AF92BF92CF9237
:10058000DF92EF92FF920F931F93CF93DF934B0174
:100590005C016A0179018FEFF90180830E94FA05FD
:1005A0002A988FEF0E94FA0520E0B501A40181E1AD
:1005B0000E9403020E942502082F8F3F09F1CBE120
:1005C000D6E0219739F08FEF0E94FA05182F8F3F60
:1005D000C1F302C01FEF12C08E3F81F4E601FEEFAF
:1005E000DF1A8FEF0E94FA058993CC16DD06C9F752
:1005F0008FEF0E94FA058FEF0E94FA05F701108332
:100600008FEF0E94FA052A9A8FEF0E94FA05802F39
:10061000DF91CF911F910F91FF90EF90DF90CF90DE
:10062000BF90AF909F908F9008958F929F92AF92BE
:10063000BF92CF92DF92FF920F931F93CF93DF93DE
:100640004B015C016A0189018FEFF90180830E94EF
:10065000FA052A988FEF0E94FA0520E0B501A4015F
:1006600088E10E9403020E942502F82E811128C011
:100670008EEF0E94FA05E601FEEFDF1A89910E94D3
:10068000FA05CC15DD05D1F7C3E4DFE021978FEF44
:1006900039F00E94FA058F3FC9F39FEFF80190836C
:1006A0008F71853069F4F8018083C3E4DFE08FEF58
:1006B0000E94FA05811104C02197C9F7F801108240
:1006C0008FEF0E94FA052A9A8FEF0E94FA058F2D6C
:1006D000DF91CF911F910F91FF90DF90CF90BF904E
:1006E000AF909F908F900895CF93DF93EC018FEFA1
:1006F0000E94FA052A988FEF0E94FA058F3FD9F7DA
:1007000020E040E050E0BA018AE30E940302CE01FB
:100710000E9450028FEF0E94FA052A9A8FEFDF9114
:10072000CF910C94FA05CF938FEF0E94FA052A9887
:100730008FEF0E94FA0520E040E050E0BA0187E325
:100740000E9403020E942502C82F8FEF0E94FA0523
:100750002A9A8FEF0E94FA058C2FCF910895CF939C
:100760008FEF0E94FA052A988FEF0E94FA0520E089
:1007700040E050E060E070E489E20E9403020E94E1
:100780002502C82F8FEF0E94FA052A9A8FEF0E9448
:10079000FA058C2FCF9108950F931F93CF93DF937A
:1007A00000D000D01F92CDB7DEB70E94EF011FEF3F
:1007B0000E9464028983813021F01150C9F711E051
:1007C0002FC08FE99FE00197F1F700C00000CE0134
:1007D00001960E9480028981813089F78D818A3A51
:1007E00071F70FEF0E9493038983823018F40E94FF
:1007F000AF0389838FE99FE00197F1F700C0000004
:100800001981112319F0015069F7D9CF8FE99FE0C1
:100810000197F1F700C00000CE0101960E94740319
:10082000812F0F900F900F900F900F90DF91CF912D
:100830001F910F910895CF938F3F19F486EB93E0AA
:1008400033C087FF03C084EA93E02EC0811103C048
:1008500086E993E029C0C82F86FF04C083E893E0AF
:100860000E943D06C5FF04C082E793E00E943D065A
:10087000C4FF04C08AE593E00E943D06C3FF04C0A4
:100880008DE493E00E943D06C2FF04C08AE393E03A
:100890000E943D06C1FF04C085E293E00E943D0630
:1008A000C0FF05C084E193E0CF910C943D06CF9149
:1008B0000895CF93DF93EC0188810E941B04888107
:1008C0008F3F09F441C08981811104C085E093E024
:1008D0000E943D06898187FF04C085EF92E00E9457
:1008E0003D06898186FF04C082EE92E00E943D06AB
:1008F000898185FF04C082ED92E00E943D068981D6
:1009000084FF04C084EC92E00E943D06898183FF4D
:1009100004C088EB92E00E943D06898182FF04C0FA
:100920008FEA92E00E943D06898181FF04C08EE932
:1009300092E00E943D06898180FF06C08FE892E028
:10094000DF91CF910C943D06DF91CF910895CF9325
:10095000DF93EC0188810E941B048881823008F0BB
:1009600065C087E792E00E943D06898186FF11C03D
:100970008FE692E00E943D0681E692E00E943D06ED
:10098000898186FF03C08DE592E005C089E592E08C
:1009900002C082E592E00E943D0684E492E00E945B
:1009A0003D068B8187FF04C08AE392E00E943D06EA
:1009B0008A8180FF04C080E392E00E943D068A8124
:1009C00081FF04C086E292E00E943D068A8182FF98
:1009D00004C08CE192E00E943D068A8183FF04C03E
:1009E00082E192E00E943D068A8184FF04C088E093
:1009F00092E00E943D068A8185FF04C08EEF91E05F
:100A00000E943D068A8186FF04C084EF91E00E9427
:100A10003D068A8187FF04C08CEE91E00E943D066E
:100A200089EE91E0DF91CF910C943D06DF91CF915B
:100A30000895CF93DF93EC0188810E941B04888185
:100A40008230B0F586ED91E00E943D0680E00E9484
:100A50001E0683ED91E00E943D068FEB91E00E941F
:100A60003D068B818F71813019F484EB91E011C0C8
:100A7000823019F486EA91E00CC0843019F48BE9D5
:100A800091E007C0883019F480E991E002C082E863
:100A900091E00E943D068AE791E00E943D068C812C
:100AA0000E941E0687E791E0DF91CF910C943D06EE
:100AB000DF91CF910895CF93DF93EC0180E791E030
:100AC0000E943D068FE591E00E943D068881829557
:100AD0008695869583700E941E068CE591E00E94A3
:100AE0003D0684E591E00E943D0689810E941E0634
:100AF00081E591E00E943D0689E491E00E943D0677
:100B00008A810E941E0686E491E00E943D0688E3E9
:100B100091E00E943D068B810E941E0685E391E0D4
:100B20000E943D0686E291E00E943D068F818F7310
:100B30000E941E0688850E941E0689850E941E0648
:100B400083E291E0DF91CF910C943D06EF92FF920A
:100B50001F93CF93DF93EC017C018EEFF81A10E026
:100B600089910E941E06133131F480E291E00E94C7
:100B70003D0610E004C080E20E940B061F5FEC16E9
:100B8000FD0671F78DE191E0DF91CF911F91FF900C
:100B9000EF900C943D06CF93C82F807F21F08AE020
:100BA00091E00E943D06C3FF04C085EF90E00E94E3
:100BB0003D06C2FF04C082EE90E00E943D06C1FFE8
:100BC00004C086ED90E00E943D06C0FF05C08DEC9C
:100BD00090E0CF910C943D06CF91089524B12C6202
:100BE00024B9249A2CB52064922B9CBD9DB5892BE9
:100BF0008DBD08958EBD0DB407FEFDCF8EB5089551
:100C00001092C50087E68093C400E1ECF0E080819B
:100C10008861808308959091C00095FFFCCF8093F8
:100C2000C6000895CF93DF93EC01899118161CF448
:100C30000E940B06FACFDF91CF910895CF93282F12
:100C400022952F70982F9F702A3010F480E301C0F6
:100C500087E3820F9A3010F4C0E301C0C7E3C90FE5
:100C60000E940B068C2FCF910C940B068091C00034
:100C700087FFFCCF8091C6000895CF93DF93FC01DE
:100C80008491EF012196882321F00E940B06FE013A
:100C9000F7CFDF91CF910895CF93DF93CDB7DEB734
:100CA000C150D2400FB6F894DEBF0FBECDBF0E9438
:100CB000000680E093E10E94EE050E94CC038823A9
:100CC00029F080EB90E00E943D0647C08AE990E061
:100CD0000E943D0685E890E00E943D0680E00E946B
:100CE0001E0680E00E941E0680E00E941E0680E034
:100CF0000E941E069E012F5F3D4FAE014F5F5F4F6A
:100D000060E070E0CB010E94BB02182F87E790E003
:100D10000E943D06812F0E941B0411110CC0CF5F61
:100D2000DD4F8881C150D2408E3F29F4CE0101961B
:100D30000E94A60512C0CF5FDD4F8881C150D2400E
:100D4000807F59F488E690E00E943D06CF5FDD4F3A
:100D50008881C150D2400E94CB05FFCFF894FFCFCD
:00000001FF
