:100000000C9434000C9451000C9451000C94510049
:100010000C9451000C9451000C9451000C9451001C
:100020000C9451000C9451000C9451000C9451000C
:100030000C9451000C9451000C9451000C945100FC
:100040000C9451000C9451000C9451000C945100EC
:100050000C9451000C9451000C9451000C945100DC
:100060000C9451000C94510011241FBECFEFD8E026
:10007000DEBFCDBF11E0A0E0B1E0EEE2F3E002C0F0
:1000800005900D92AE30B107D9F721E0AEE0B1E0B6
:1000900001C01D92A431B207E1F70E94D8000C9470
:1000A00095010C940000092E000CAA0BBB0B9C01BF
:1000B000AD0184E0220F331F441F551F8A95D1F7ED
:1000C00060E074E284EF90E00E945F01215031090A
:1000D0003093C5002093C40088E18093C10086E07E
:1000E0008093C200E0ECF0E080818D7F80830895F2
:1000F0009091C00095FFFCCF8093C6000895CF93E8
:10010000C82F8A3019F48DE00E9478008C2F0E944D
:10011000780080E090E0CF9108958091C00087FF43
:10012000FCCF8091C600089580E895E20E945300BC
:1001300080E091E09093110180931001089584B1C3
:100140008C6284B92A9A82E58CBD08958EBD0DB467
:1001500007FEFDCF8EB508955F9A0895579A0C94C7
:10016000AC005F980E94A6000C94AC00CF93C62F01
:100170005F980E94A6008C2F0E94A600CF910C943D
:10018000AC001F93CF93DF93162FD42FC22F5F980D
:100190000E94A600812F0E94A6008D2F0E94A6001B
:1001A0008C2F0E94A600DF91CF911F910C94AC0080
:1001B000CF92DF92EF92FF920F931F93CF93DF9333
:1001C0000E9494000E949F000E94AE0086E70E9459
:1001D000B1002FEF8BE792E9215080409040E1F78A
:1001E00000C000006FEF8AE70E94B6002FEF81EE9B
:1001F00094E0215080409040E1F700C00000C0E052
:10020000D0E00AE010E084E6C82ED12C98EEE92E6A
:1002100093E0F92ECE01B8010E944B0120E3280F94
:10022000CB01B8010E944B0140E3480FCE01B6015B
:100230000E944B01CB01B8010E944B0130E3380F03
:10024000CE01B7010E944B01862F632F805D0E9473
:10025000C1008FE39CE90197F1F700C000002196EF
:10026000CF3097E2D907B1F62FEF83ED90E321501D
:1002700080409040E1F700C0000086E70E94B10096
:1002800080E090E0DF91CF911F910F91FF90EF9070
:10029000DF90CF90089597FB072E16F4009407D0B7
:1002A00077FD09D00E94810107FC05D03EF49095AE
:1002B00081959F4F0895709561957F4F0895A1E2B4
:1002C0001A2EAA1BBB1BFD010DC0AA1FBB1FEE1FD0
:1002D000FF1FA217B307E407F50720F0A21BB30B1B
:1002E000E40BF50B661F771F881F991F1A9469F797
:1002F00060957095809590959B01AC01BD01CF01F3
:100300000895AA1BBB1B51E107C0AA1FBB1FA6175C
:10031000B70710F0A61BB70B881F991F5A95A9F7AE
:0E03200080959095BC01CD010895F894FFCF13
:0E032E0000000002000000007F000000000040
:00000001FF
